:100000000C948F000C94B7000C94B7000C94B700BC
:100010000C94B7000C94B7000C94B7000C94B70084
:100020000C94B7000C94B7000C94B7000C94B70074
:100030000C94B7000C94B7000C94B7000C94B70064
:100040000C94160B0C94B7000C94860B0C94600B5C
:100050000C94B7000C94B7000C94B7000C94B70044
:100060000C94B7000C94B70005A84CCDB2D44EB98F
:100070003836A9020C50B9918688083CA6AAAA2A4B
:10008000BE000000803F4E414E494E495459494EF2
:1000900046CDCCCC3D0AD7233C17B7D13877CC2BF3
:1000A000329595E6241FB14F0A000020410000C898
:1000B0004200401C4620BCBE4CCA1B0E5AAEC59D19
:1000C0007400000000230026002900000000002426
:1000D0000027002A0000000000250028002B000453
:1000E00004040404040404020202020202030303DF
:1000F00003030301020408102040800102040810D9
:100100002001020408102000000008000201000085
:10011000030407000000000000000000B80B1124D9
:100120001FBECFEFD8E0DEBFCDBF23E0A6E1B2E037
:1001300001C01D92A83CB207E1F712E0A0E0B1E0D7
:10014000E6E9F6E302C005900D92A631B107D9F7B2
:1001500010E0CFE8D0E004C02197FE010E94F31820
:10016000CE38D107C9F70E94CA0C0C94491B0C94D5
:100170000000833081F028F4813099F08230A9F0BA
:1001800008958730A9F08830C9F08430B1F48091A7
:1001900080008F7D03C0809180008F7780938000E6
:1001A000089584B58F7784BD089584B58F7DFBCF86
:1001B0008091B0008F778093B00008958091B00057
:1001C0008F7DF9CF1F93CF93DF93282F30E0F90174
:1001D000E95FFE4F8491F901ED50FF4FD491F90191
:1001E000E152FF4FC491CC23A9F0162F81110E9438
:1001F000B900EC2FF0E0EE0FFF1FEB52FF4FA5917F
:10020000B4918FB7F894EC91111108C0D095DE230A
:10021000DC938FBFDF91CF911F910895DE2BF8CF34
:10022000CF93DF9390E0FC01ED50FF4F249181527A
:100230009F4FFC0184918823C9F090E0880F991F9B
:10024000FC01E553FF4FA591B491FC01EB52FF4F28
:10025000C591D49161110DC09FB7F8948C912095F0
:1002600082238C938881282328839FBFDF91CF919D
:100270000895623051F49FB7F8943C91822F809595
:1002800083238C93E8812E2BEFCF8FB7F894EC91DA
:100290002E2B2C938FBFEACF8E50806480937C00EE
:1002A00080917A00806480937A0080917A0086FD44
:1002B000FCCF80917800909179000895AF92BF9221
:1002C000CF92DF92EF92FF920F931F93CF93DF9322
:1002D0006C017B018B01040F151FEB015E01AE1851
:1002E000BF08C017D10759F06991D601ED91FC9173
:1002F0000190F081E02DC6010995892B79F7C501A0
:10030000DF91CF911F910F91FF90EF90DF90CF90F1
:10031000BF90AF900895FC01538D448D252F30E0A0
:10032000842F90E0821B930B541710F0CF96089502
:1003300001970895FC01918D828D981761F0A28D2F
:10034000AE0FBF2FB11D5D968C91928D9F5F9F73F5
:10035000928F90E008958FEF9FEF08952FB7F89454
:100360008091800290918102A0918202B0918302DB
:100370002FBF80938C0290938D02A0938E02B09336
:100380008F0284E892E00E949A0197FF26C02FB75F
:10039000F8948091800290918102A0918202B091A4
:1003A00083022FBF40918C0250918D0260918E028A
:1003B00070918F02841B950BA60BB70B409188029E
:1003C0005091890260918A0270918B02841795077F
:1003D000A607B707B0F28FEF9FEF0895FC01918D4C
:1003E000828D981731F0828DE80FF11D858D90E098
:1003F00008958FEF9FEF0895FC01918D228D892F35
:1004000090E0805C9F4F821B91098F73992708951C
:1004100084E892E00E94FC0121E0892B09F420E0AD
:10042000822F089580E090E0892B29F00E94080235
:1004300081110C9400000895FC01A48DA80FB92F20
:10044000B11DA35ABF4F2C91848D90E001968F73FC
:100450009927848FA689B7892C93A089B1898C911B
:10046000837080648C93938D848D981306C002886A
:10047000F389E02D80818F7D80830895EF92FF9234
:100480000F931F93CF93DF93EC0181E0888F9B8DB7
:100490008C8D98131AC0E889F989808185FF15C071
:1004A0009FB7F894EE89FF896083E889F989808194
:1004B0008370806480839FBF81E090E0DF91CF9163
:1004C0001F910F91FF90EF900895F62E0B8D10E085
:1004D0000F5F1F4F0F731127E02E8C8D8E110CC0F4
:1004E0000FB607FCFACFE889F989808185FFF5CF3F
:1004F000CE010E941C02F1CFEB8DEC0FFD2FF11D00
:10050000E35AFF4FF0829FB7F8940B8FEA89FB897B
:1005100080818062CFCFCF93DF93EC01888D8823D9
:10052000B9F0AA89BB89E889F9898C9185FD03C056
:10053000808186FD0DC00FB607FCF7CF8C9185FF3B
:10054000F2CF808185FFEDCFCE010E941C02E9CF62
:10055000DF91CF9108954F925F926F927F92AF9209
:10056000BF92CF92DF92EF92FF920F931F93CF93A0
:10057000DF93EC015A018B014C8C5D8C6E8C7F8C6F
:1005800073016201F7FAF094F7F8F0949A01AB0165
:10059000C701B6010E942318181664F09501A8013E
:1005A000C301B2010E94A6147301620187FD02C05B
:1005B0006501780120E030E0A901C701B6010E9481
:1005C000A614811117C01B821C821D821E82C88E38
:1005D000D98EEA8EFB8EDF91CF911F910F91FF9004
:1005E000EF90DF90CF90BF90AF907F906F905F9033
:1005F0004F900895A701960160E074E284E799E4C2
:100600000E9490169F770E9409176B837C838D83CD
:100610009E8311E020E030E0A901C701B6010E94ED
:10062000231818160CF010E01A83D1CFCF92DF9266
:10063000EF92FF92CF93DF93EC013FB7F894809154
:100640007B0290917C02A0917D02B0917E0226B542
:10065000A89B05C02F3F19F00196A11DB11D3FBFFA
:10066000BA2FA92F982F88276C017D01C20ED11CAB
:10067000E11CF11C42E0CC0CDD1CEE1CFF1C4A9579
:10068000D1F788A599A5AAA5BBA5B701A601481BC6
:10069000590B6A0B7B0B8B819C81AD81BE81481706
:1006A00059076A077B0748F188899989AA89BB8914
:1006B0002A812223F1F00196A11DB11D888B998B0F
:1006C000AA8BBB8B488959896A897B89E881F98122
:1006D0000484F585E02DCE010995C8A6D9A6EAA621
:1006E000FBA681E0DF91CF91FF90EF90DF90CF905C
:1006F00008950197A109B109E1CF80E0F3CFCF932D
:10070000DF93FC012781222359F1EC0161E0808510
:100710000E94100161E089850E9410018F81843060
:1007200011F08830B1F461E08A850E94100161E027
:100730008B850E9410018FA58F3F91F061E00E9490
:1007400010016EA581E068278FA5DF91CF910C94F1
:10075000E200833011F0863071F761E08A85E9CFDD
:10076000DF91CF910895CF93DF93FC01278122235E
:10077000A9F0EC010190F081E02D0284F385E02DD9
:1007800060E009958FA58F3F49F061E00E9410015C
:100790006EA58FA5DF91CF910C94E200DF91CF91F0
:1007A0000895DC01ED91FC91228533854770552732
:1007B0006627772741505109610971094730510572
:1007C0006105710560F4FA01E851FC4F0C94F318CF
:1007D000F203F403F603F803FA03FC03FE0361E0FB
:1007E000F901099465E0FCCF64E0FACF66E0F8CF48
:1007F00062E0F6CF6AE0F4CF68E0F2CF69E0F0CFD4
:10080000CF93DF93EC01CB01BA0126E030E040E06A
:1008100050E00E94D418623071058105910589F17C
:100820006CF46115710581059105D1F06130710598
:1008300081059105F9F0DF91CF910895643071053C
:100840008105910561F124F16530710581059105FE
:1008500091F7E881F9810284F385E02D66E006C016
:10086000E881F9810284F385E02D64E0CE01DF9117
:10087000CF910994E881F9810284F385E02D65E048
:10088000F5CFE881F9810284F385E02D61E0EECFB8
:10089000E881F9810284F385E02D63E0E7CFE88108
:1008A000F9810284F385E02D62E0E0CFDC01ED9177
:1008B000FC910284F385E02D437055276627772746
:1008C000423051056105710571F0433051056105F4
:1008D000710559F0413051056105710511F065E070
:1008E000099466E0FDCF6AE0FBCF69E0F9CFCF93D2
:1008F000DF93EC01CB01BA0123E030E040E050E0AF
:100900000E94D418613071058105910599F062301B
:10091000710581059105A9F0672B682B692BC1F43E
:10092000E881F9810284F385E02D64E0CE01DF9156
:10093000CF910994E881F9810284F385E02D61E08B
:10094000F5CFE881F9810284F385E02D62E0EECFF6
:10095000DF91CF910895DC01ED91FC910284F38544
:10096000E02D4370552766277727423051056105F2
:10097000710571F0433051056105710559F0413041
:1009800051056105710511F062E0099463E0FDCF46
:1009900061E0FBCF60E0F9CFCF93DF93EC01E8811A
:1009A000F9810284F385E02D8A8160E0811162E0A3
:1009B000CE010995E881F9810284F385E02D8A81D1
:1009C00061E0811163E0CE0109958CA59DA582307F
:1009D000910538F0880F991F880F991F0597019787
:1009E000F1F7E881F9810284F385E02D8A8160E0E6
:1009F000811162E0CE01DF91CF910994CF93DF9313
:100A0000EC0120E030E0A901688D798D8A8D9B8D05
:100A10000E94231818162CF4E8A9F9A9DF91CF91A8
:100A20000994EAA9FBA9FACFCF92DF92EF92FF9245
:100A30000F931F93CF93DF93DC011796CC91C430B3
:100A400039F0C83059F1C33019F0C63049F1C2E06D
:100A50008C01085F1F4FF12CE12CC62ED12CD1E068
:100A6000F8016481C6010E2C02C0959587950A9401
:100A7000E2F780FD6D270F5F1F4F80810E94E2002B
:100A8000BFEFEB1AFB0AEC1658F3DF91CF911F91E1
:100A90000F91FF90EF90DF90CF900895C4E0D8CFF2
:100AA000C3E0D6CFDC011796EC911797E93008F038
:100AB00038C0F0E0E25AFA4F0C94F31867056D0560
:100AC000730579057F059105850591058B05ED91E8
:100AD000FC910684F785E02D0994ED91FC91008846
:100AE000F189E02DF9CFED91FC910288F389E02D99
:100AF000F3CFED91FC910488F589E02DEDCFED91D8
:100B0000FC910688F789E02DE7CFED91FC91008CF0
:100B1000F18DE02DE1CFED91FC91028CF38DE02D74
:100B2000DBCF08954F925F926F927F928F929F9248
:100B3000AF92BF92CF92DF92EF92FF920F931F93EB
:100B4000CF93DF93EC01CC88DD88EE88FF8888891D
:100B50009989AA89BB89C81AD90AEA0AFB0A688D49
:100B6000798D8A8D9B8D9B01AC010E940C154B01E8
:100B70005C0168A179A18AA19BA19B01AC010E94A3
:100B80001F169B01AC01C501B4010E9490160E9482
:100B90000217C114D104E104F10409F0B6C06230B7
:100BA0007105810591050CF0D0C01B821C821D824D
:100BB0001E82188E198E1A8E1B8E1CAA1DAA1EAAA2
:100BC0001FAAC12CD12C7601C701B601DF91CF91AC
:100BD0001F910F91FF90EF90DF90CF90BF90AF905B
:100BE0009F908F907F906F905F904F900895101618
:100BF000110612061306B4F46C157D058E059F05CB
:100C00001CF42A812111A1C09B01AC0188279927DE
:100C1000DC01821B930BA40BB50B8CAB9DABAEAB75
:100C2000BFAB93C0011511052105310509F48DC035
:100C30006C157D058E059F050CF087C08A81882381
:100C400009F483C030952095109501951F4F2F4FC3
:100C50003F4F0CAB1DAB2EAB3FAB77C00115110561
:100C60002105310509F471C08824992454018C1898
:100C70009D08AE08BF08681579058A059B050CF02C
:100C800064C08A81811161C0DDCFCCACDDACEEAC3B
:100C9000FFACA7019601C701B6010E941F162B01E8
:100CA0003C01C501B4010E94AD1420E030E040E8F1
:100CB00050E40E940C1520E030E040E85FE30E9421
:100CC0001F169B01AC01C301B2010E9490169B014B
:100CD000AC01C701B6010E941E163B016C01FE016A
:100CE000E05CFF4FE080F180028113819701A80151
:100CF0000E942318181614F473018601C701D80145
:100D00008CAF9DAFAEAFBFAF3AC00CA91DA92EA945
:100D10003FA91C141D041E041F040CF468CF1016F8
:100D20001106120613060CF099CF0027112798011F
:100D30000C191D092E093F096017710782079307D7
:100D40000CF062CF2A8121115FCF8CA89DA8AEA89C
:100D5000BFA881149104A104B10409F096CF88AD15
:100D600099ADAAADBBAD8CAF9DAFAEAFBFAF81E0CB
:100D70001C141D041E041F040CF080E08A833FEF46
:100D8000831A930AA30AB30A8CAA9DAAAEAABFAA81
:100D90008CAC9DACAEACBFACC501B4010E940917D0
:100DA0006B017C01CB82DC82ED82FE82A501940185
:100DB00060E074E284E799E40E949016688F798F6E
:100DC0008A8F9B8F2A812111FFCE9058688F798F4F
:100DD0008A8F9B8FF9CECF92DF92EF92FF920F9383
:100DE0001F93CF93DF93EC016A017B0120E030E099
:100DF000A901CB01B6010E94A61487FF04C0F7FA2F
:100E0000F094F7F8F094A70196016C8D7D8D8E8D8E
:100E10009F8D0E94A614882309F446C0CC8EDD8ED7
:100E2000EE8EFF8E8E01005C1F4FA701960160E0E1
:100E300074E284E799E40E949016F801608371835C
:100E4000828393838CA99DA9AEA9BFA91816190600
:100E50001A061B064CF5688D798D8A8D9B8D9B013A
:100E6000AC010E940C156B017C0168A179A18AA1DB
:100E70009BA19B01AC010E941F169B01AC01C70105
:100E8000B6010E9490160E9402176CAB7DAB8EAB30
:100E90009FABCE01DF91CF911F910F91FF90EF900B
:100EA000DF90CF900C949205DF91CF911F910F911D
:100EB000FF90EF90DF90CF90089508952F923F928A
:100EC0004F925F926F927F928F929F92AF92BF925A
:100ED000CF92DF92EF92FF920F931F93CF93DF9306
:100EE000CDB7DEB762970FB6F894DEBF0FBECDBFA9
:100EF0006B017C012D873E874F87588B2AEA37E2AA
:100F00004FE155E40E940C150E9402172B013C0191
:100F100020E030E044EB55E46D857E858F8598892F
:100F20000E940C150E9402174B015C0120912202C5
:100F3000309123024091240250912502C701B6014D
:100F40000E941E162BED3FE049EC50E40E949016E3
:100F50009B01AC0160911A0270911B0280911C02EE
:100F600090911D020E941F1660931A0270931B023B
:100F700080931C0290931D028091040181111AC07C
:100F80002BED3FE049EC50E4C701B6010E949016FA
:100F900020E030E04AE756E40E940C1520E030E003
:100FA00040E251E40E9490160E940217861A970AA6
:100FB000A80AB90A49825A826B827C828D829E82FB
:100FC000AF82B886209039039E012F5F3F4F2901E1
:100FD00045E253E05A874987912C312C00E010E01C
:100FE000812C2914C9F1D2016D917D918D919D9132
:100FF0002D01E985FA85A190B190FA87E987D5019D
:1010000050962D913D914D915C915397621B730BBE
:10101000840B950B97FF07C090958095709561950F
:101020007F4F8F4F9F4F0E94AD14F501248D358D5A
:10103000468D578D0E9490163B015C01232D302F69
:10104000412F582D0E942318181624F4362C072DF2
:101050001A2D8B2C9394C5CF20E030E0A901632D8D
:10106000702F812F982D0E94231818160CF06CC039
:10107000912C80913903981608F066C0892D90E074
:10108000FC01EE0FFF1FEE0FFF1F21E030E02C0FE1
:101090003D1FE20FF31F4080518062807380AC01DE
:1010A000440F551F5A8B498BFA01EB5DFC4FA08012
:1010B000B180F50180899189A289B389A301920148
:1010C000281B390B4A0B5B0BCA01B9010E94AD14F6
:1010D000232D302F412F582D0E94901669877A8733
:1010E0008B879C87F50184899589A689B7894816DD
:1010F00059066A067B0661F0448A558A668A778AB1
:101100000190F081E02D0084F185E02DC501099565
:10111000E989FA89EB5DFC4FA080B180F501208D53
:10112000318D428D538D69857A858B859C850E9492
:10113000A614882339F049855A856B857C85C501BD
:101140000E94AB02939495CF80E010E09091390318
:10115000191720F5E12FF0E0EE0FFF1FEB5DFC4FBC
:101160000190F081E02D84889588A688B788408911
:1011700051896289738984169506A606B70661F0BF
:1011800083819481A581B681892B8A2B8B2B19F0C1
:10119000CF010E94160381E01F5FD8CF8111D4CF09
:1011A000C0922202D0922302E0922402F092250201
:1011B0002D853E854F85588920931E0230931F024E
:1011C000409320025093210262960FB6F894DEBF3E
:1011D0000FBECDBFDF91CF911F910F91FF90EF9088
:1011E000DF90CF90BF90AF909F908F907F906F9047
:1011F0005F904F903F902F900895FC010190002048
:10120000E9F73197AF01481B590BBC0184E892E024
:101210000C945E01CF93DF930E94FD08EC018DE3F7
:1012200091E00E94FD088C0F9D1FDF91CF910895E2
:1012300080E491E00E940A0920E030E04AE754ECA3
:101240006091520370915303809154039091550320
:101250000E94A614882341F040E050E06AE774EC55
:101260008AE393E00E94AB0280913D0390913E039C
:10127000A0913F03B0914003892B8A2B8B2B21F047
:101280008AE393E00E94160360914A0370914B0336
:1012900080914C0390914D030E94AD1420E030E00A
:1012A00046EC55EC0E94A6141816F4F210924A036C
:1012B00010924B0310924C0310924D0310924E0368
:1012C00010924F03109250031092510310926E032C
:1012D00010926F03109270031092710310923D03ED
:1012E00010923E0310923F0310924003109252035B
:1012F000109253031092540310925503109222023D
:1013000010922302109224021092250210921E02C3
:1013100010921F02109220021092210287E491E0A5
:101320000C940A094F925F926F927F928F929F92D4
:10133000AF92BF92CF92DF92EF92FF92CF93DF9363
:10134000EC016A017B0120E030E0A901CB01B6018C
:101350000E94A61487FF04C0F7FAF094F7F8F094FF
:1013600088A099A0AAA0BBA0A7019601C501B401BD
:101370000E94A614882309F44DC06CA97DA98EA9EA
:101380009FA90E94AD142B013C01A7019601C50144
:10139000B4010E9490169B01AC01C301B2010E94EE
:1013A0000C150E9402176CAB7DAB8EAB9FABA701F7
:1013B000960160E070E080E090E40E9490160E9448
:1013C000521826E53EE04DE25FE30E940C1520E056
:1013D00034E244E759E40E940C1568AF79AF8AAF54
:1013E0009BAFC8A2D9A2EAA2FBA2E881F98100843E
:1013F000F185E02DCE01DF91CF91FF90EF90DF904E
:10140000CF90BF90AF909F908F907F906F905F90A4
:101410004F900994DF91CF91FF90EF90DF90CF90A4
:10142000BF90AF909F908F907F906F905F904F9004
:101430000895FC0124813581232B39F421E0FB013F
:101440008081882349F020E007C0808191810E943B
:10145000111B21E0892BB9F7822F0895FC018081AF
:101460009181009711F00C94B71908950C94B71955
:10147000FB0144815581FC01248135812417350706
:1014800078F080819181009759F0FB016081718132
:101490006115710529F00E94211B21E0892B09F0BB
:1014A00020E0822F08950F931F93CF93DF93EC01D9
:1014B00088819981009759F02A813B812617370747
:1014C00030F081E0DF91CF911F910F9108958B0152
:1014D0006F5F7F4F0E94401A009759F0998388836D
:1014E0001B830A832C813D81232B59F7FC01108239
:1014F000E8CF80E0E7CFEF92FF920F931F93CF9357
:10150000DF93EC017B018A01BA010E94530A288112
:101510003981811114C02115310519F0C9010E94CA
:10152000B719198218821D821C821B821A82CE0171
:10153000DF91CF911F910F91FF90EF9008951D8340
:101540000C83B701C9010E941A1BF1CFFC01118263
:1015500010821382128215821482FB0101900020F6
:10156000E9F73197AF01461B570B0C947B0AAF92FA
:10157000BF92CF92DF92EF92FF920F931F93CF9380
:10158000DF93EC016B015A0179012417350720F430
:101590008B2D5901E42EF82E6FE371E0CE010E94ED
:1015A000A60AD60114960D911C91A016B10628F535
:1015B000E016F10608F48701D601ED91FC91119730
:1015C000E00FF11FF08010826D917C916A0D7B1D00
:1015D00061157105F1F0FB0101900020E9F73197E9
:1015E000AF01461B570BCE010E947B0AF60180819A
:1015F0009181080F191FD801FC92CE01DF91CF9184
:101600001F910F91FF90EF90DF90CF90BF90AF9020
:10161000089588819981009711F00E94B719198265
:1016200018821D821C821B821A82E0CF1F920F92A9
:101630000FB60F9211242F933F938F939F93AF93E5
:10164000BF938091800290918102A0918202B0911B
:10165000830230917F0223E0230F2D3758F5019646
:10166000A11DB11D20937F0280938002909381027F
:10167000A0938202B093830280917B0290917C02BE
:10168000A0917D02B0917E020196A11DB11D8093B3
:101690007B0290937C02A0937D02B0937E02BF9167
:1016A000AF919F918F913F912F910F900FBE0F900F
:1016B0001F90189526E8230F0296A11DB11DD2CFC9
:1016C0001F920F920FB60F9211242F933F934F93B7
:1016D0005F936F937F938F939F93AF93BF93EF939A
:1016E000FF9384E892E00E941C02FF91EF91BF916A
:1016F000AF919F918F917F916F915F914F913F91AA
:101700002F910F900FBE0F901F9018951F920F9260
:101710000FB60F9211242F938F939F93EF93FF9304
:10172000E0919402F09195028081E0919A02F0910B
:101730009B0282FD1BC0908180919D028F5F8F7301
:1017400020919E02821741F0E0919D02F0E0EC575B
:10175000FD4F958F80939D02FF91EF919F918F9107
:101760002F910F900FBE0F901F9018958081F4CF8E
:101770008F929F92AF92BF92CF92DF92EF92FF92A1
:101780000F931F93CF93DF93E4E8F2E0138212826A
:1017900088EE93E0A0E0B0E084839583A683B783CE
:1017A0008FE091E09183808385EC90E0958784873A
:1017B00084EC90E09787868780EC90E0918B808B1B
:1017C00081EC90E0938B828B82EC90E0958B848B04
:1017D00086EC90E0978B868B118E128E138E148E72
:1017E000EEE7F3E001E211E01183008388248394A3
:1017F0008782108A118A128A138A148A158A168A95
:10180000178A108E118E128E138E148E158E168ED0
:10181000178E10A211A212A213A2C12CD12C80E803
:10182000E82E8FE3F82EC4A2D5A2E6A2F7A2138277
:10183000148215821682C1E0D0E0D5A7C4A79924EE
:101840009A9497A610A611A612A613A682E08087E6
:1018500095E0B92EB18624E0A22EA286B38616A604
:1018600014AA15AA16AA17AA10AE11AE12AE13AE7C
:1018700014AE15AE16AE17AEC092BE03D092BF0323
:10188000E092C003F092C103128214861586168678
:101890001786CF010E947F03B701A6018EE793E070
:1018A0000E949209B701A6018EE793E00E94EB0621
:1018B000EAE3F3E0118300838782108A118A128A97
:1018C000138A148A158A168A178A108E118E128E20
:1018D000138E148E158E168E178E10A211A212A2C0
:1018E00013A2C4A2D5A2E6A2F7A213821482158283
:1018F0001682D5A7C4A797A610A611A612A613A64E
:1019000083E0808786E08187A286B38616A614AA24
:1019100015AA16AA17AA10AE11AE12AE13AE14AEC7
:1019200015AE16AE17AEC0927A03D0927B03E0924A
:101930007C03F0927D031282148615861686178624
:10194000CF010E947F03B701A6018AE393E00E94C2
:101950009209B701A6018AE393E00E94EB06109278
:10196000390380E090E0AAE7B4E4809321039093E8
:101970002203A0932303B0932403DF91CF911F91FF
:101980000F91FF90EF90DF90CF90BF90AF909F901E
:101990008F900895CF93DF93CDB7DEB7A6970FB69C
:1019A000F894DEBF0FBECDBF789484B5826084BD4D
:1019B00084B5816084BD85B5826085BD85B5816053
:1019C00085BD80916E00816080936E0010928100D1
:1019D000809181008260809381008091810081608C
:1019E000809381008091800081608093800080914D
:1019F000B10084608093B1008091B00081608093D9
:101A0000B00080917A00846080937A0080917A009F
:101A1000826080937A0080917A00816080937A005E
:101A200080917A00806880937A001092C10040E033
:101A300050E06AE774E48EE793E00E94EB0640E032
:101A400050E068E472E48EE793E00E94920940E07F
:101A500050E06AE774E48AE393E00E94EB0640E01A
:101A600050E068E472E48AE393E00E949209E09116
:101A70003903EA3068F481E08E0F80933903F0E097
:101A8000EE0FFF1FEB5DFC4F8EE793E091838083A9
:101A9000E0913903EA3068F481E08E0F80933903D6
:101AA000F0E0EE0FFF1FEB5DFC4F8AE393E09183C4
:101AB000808362E08BE00E94100160E08EE00E9473
:101AC000100160E08FE00E941001E0919402F0911B
:101AD000950282E08083E0919002F0919102108261
:101AE000E0919202F091930280E1808310929C0237
:101AF000E0919802F091990286E08083E09196024D
:101B0000F0919702808180618083E0919602F0914C
:101B10009702808188608083E0919602F09197021D
:101B2000808180688083E0919602F09197028081A5
:101B30008F7D80838DE491E00E940A0980E691E028
:101B40000E940A0981E791E00E940A0980E891E079
:101B50000E940A090E941809E2E1F1E08491EEEF87
:101B6000F0E00491EAEEF0E01491112309F4C4C10D
:101B700081110E94B900E12FF0E0EE0FFF1FEF533B
:101B8000FF4FA591B4918C91082391E080E009F07A
:101B900090E0092F182F8091790290917A02801796
:101BA0009107B9F10130110509F0A9C182E891E06E
:101BB0000E940A0920E030E040E05FE360912103E9
:101BC0007091220380912303909124030E940C15AD
:101BD0006B017C01BC01A6018EE793E00E94EB063D
:101BE000B701A6018AE393E00E94EB06109204017C
:101BF000609122027091230280912402909125022B
:101C000020E030E0A9010E945E0710937A02009361
:101C100079028091790290917A028130910509F0E0
:101C20009BC18FE00E944C01BC01990F880B990B5E
:101C30000E94AD1420E030E040EB50E40E940C150F
:101C400020E030EC4FE754E40E94901620E030E0B2
:101C500040E05FE30E941F1620E030E040E251E4E4
:101C60000E940C150E94281820E030E040E251E468
:101C70000E9490166B017C0120E030E040E85FE3B9
:101C80000E945A1720E030E040E05FE30E942318F2
:101C900087FD55C1C701B6010E94381723E333E31E
:101CA00043E75FE30E941F166B017C0180900001F7
:101CB00090900101A0900201B09003014090220297
:101CC000509023026090240270902502AC019B0189
:101CD000C501B4010E94A614882331F1A701960121
:101CE000C501B4010E941E16A30192010E940C15A9
:101CF0009B01AC016091160270911702809118024D
:101D0000909119020E941F16609316027093170299
:101D10008093180290931902C0920001D0920101A1
:101D2000E0920201F09203018EE00E944C01BC019E
:101D3000990F880B990B0E94AD1420E030E040E031
:101D40005FE30E940C1520E030EC4FE754E40E9462
:101D5000901620E030E0A9010E941F1620E030E03C
:101D600040EA51E40E940C150E94281820E030E05F
:101D700040EA51E40E9490166B017C01AC019B018A
:101D800060E070E080E89FE30E941E1620E030E0F3
:101D900040E05FE30E940C154B015C01AC019B012C
:101DA000C701B6010E941F166B8F7C8F8D8F9E8F8F
:101DB0002CE739ED40E25DE3C301B2010E941F163A
:101DC0006B017C012BED3FE049EC50E40E94901642
:101DD00060931A0270931B0280931C0290931D0261
:101DE0008091000190910101A0910201B091030145
:101DF0008B8B9C8BAD8BBE8B8091160290911702C2
:101E0000A0911802B09119028F8B988FA98FBA8F69
:101E1000A30192016B897C898D899E890E940C1592
:101E20002F89388D498D5A8D0E941F160E948B165E
:101E30009B01AC01C501B4010E940C152B8D3C8D9A
:101E40004D8D5E8D0E941F1660931E0270931F02BF
:101E500080932002909321022B893C894D895E89D1
:101E6000C701B6010E940C152F89388D498D5A8DF6
:101E70000E941F160E948B169B01AC01C501B40184
:101E80000E940C152B8D3C8D4D8D5E8D0E941F1672
:101E90004B015C0120E030E0A9010E94A61487FDFF
:101EA00057C020E030E040E85FE3C501B4010E9484
:101EB0002318181634F4812C912C30E8A32E3FE31C
:101EC000B32EA5019401C701B6010E945E07C0921E
:101ED0002202D0922302E0922402F092250280E0B6
:101EE00090E0892B09F438CE0E940802882309F477
:101EF00033CE0E94000030CE01E010E04CCE89E9E4
:101F000091E00E940A09C0902103D0902203E09042
:101F10002303F0902403B701A6018EE793E00E940B
:101F2000EB06B701A6018AE393E00E94EB0681E08D
:101F30008093040189EA91E00E940A0959CEC70101
:101F4000B6010E9438172DEC3CEC4CEC5DE3AACEB8
:101F5000812C912C5401B5CF892B09F684E892E0AD
:101F60000E94FC01181619060CF0E3C16FE371E042
:101F7000CE010D960E94A60A0E94AE0197FD1EC0DA
:101F80008A309105D9F089831A8209891A890F5FED
:101F90001F4FB801CE010D960E94530A882361F3AA
:101FA0002D853E8589899A89BE016F5F7F4F820F9B
:101FB000931F0E941A1B1A8B098BDECF65EB71E011
:101FC000CE010D960E94190A811162C06AEB71E080
:101FD000CE010D960E94190A81115AC066EC71E07B
:101FE000CE010D960E94190A811152C062ED71E076
:101FF000CE0101960E94A60ABE016F5F7F4FCE01FF
:102000000D960E94380A10E0811127C06CED71E036
:10201000CE0107960E94A60A29893A894B855C85DC
:102020002417350708F41BC38D859E85009709F496
:1020300016C36F8178856115710509F410C3241BDF
:10204000350B820F931F0E94111B11E0892B09F49D
:1020500010E0CE0107960E942E0ACE0101960E9442
:102060002E0A1123A9F08EED91E00E94FD08498906
:102070005A896D857E8584E892E00E945E018DE339
:1020800091E00E94FD08CE010D960E942E0A27CFF6
:102090006AEB71E0CE010D960E94190A882381F047
:1020A00081E08093040189EA91E00E940A0989EAAB
:1020B00091E00E940A0988EE91E00E940A09E3CFAC
:1020C00065EB71E0CE010D960E94190A882319F084
:1020D0000E941809D8CF62ED71E0CE0101960E94EE
:1020E000A60ABE016F5F7F4FCE010D960E94380A8F
:1020F000182FCE0101960E942E0A112309F473C0F5
:1021000009891A890115110509F46AC0ED84FE8454
:1021100060E270E0C7010E94061B009709F460C0EE
:10212000AC014E195F094F3F540709F459C04F5F86
:102130005F4F9801BE01635F7F4FCE0101960E9401
:10214000B70A89819A81009709F447C00E94311328
:102150006B017C0120E030E040E85FE30E9423183F
:1021600087FD3BC020E030E048EC52E4C701B601F7
:102170000E94A61418168CF120E030E048EC52E4DE
:10218000C701B6010E94901620E030E04AE754E40F
:102190000E940C150E9402170E94AD146B017C0175
:1021A000C0922103D0922203E0922303F0922403F1
:1021B000BC01A6018EE793E00E94EB06B701A601E1
:1021C0008AE393E00E94EB068EEE91E00E940A09FA
:1021D000CE0101960E942E0A56CF88EF91E0F6CFED
:1021E00086E092E06ACF8091780281119EC028E259
:1021F000222E22E0322E10E000E0D12CC12C6CED1A
:1022000071E0CE0101960E94A60A89899A89081771
:10221000190770F48D849E8469817A81C401800FCE
:10222000911F0E942F1B7C01E818F908892B19F4D3
:10223000EE24EA94FE2CCE0101960E942E0AAFEF06
:10224000EA16FA0609F46AC09701A801BE01635FA5
:102250007F4FCE0107960E94B70A8B859C85892BFC
:1022600061F08F8098846CE270E0C4010E94061BCC
:102270008C0108191909892B11F40FEF1FEF980130
:1022800050E040E0BE01695F7F4FCE0101960E94A1
:10229000B70A89819A81412C512C3201009721F093
:1022A0000E9431132B013C01CE0101960E942E0A9F
:1022B0002B853C85A8014F5F5F4FBE01695F7F4F53
:1022C000CE0101960E94B70A89819A81812C912CB6
:1022D0005401009721F00E9431134B015C01CE01A3
:1022E00001960E942E0AF10140825182628273821D
:1022F00084829582A682B782BFEFCB1ADB0A870160
:102300000F5F1F4FCE0107960E942E0AE8E02E0EA7
:10231000311CFAE0CF16D10409F071CFD092270218
:10232000C092260281E080937802CE010D960E9431
:102330002E0A80917802882309F4D1CD809126025B
:1023400090912702181619060CF0C9CD809122022F
:1023500090912302A0912402B09125028B8B9C8B3B
:10236000AD8BBE8B80911E0290911F02A091200226
:10237000B09121028F8B988FA98FBA8F88E2682E37
:1023800082E0782E512C412C8091260290912702D8
:10239000481659060CF058C180910401882309F4AD
:1023A000C4C0C0902802D0902902E0902A02F09088
:1023B0002B022AEA37E24FE155E4C701B6010E9439
:1023C0000C150E94021760938E0370938F03809305
:1023D000900390939103609392037093930380937F
:1023E0009403909395031092B2031092B30310924A
:1023F000B4031092B50310928103109282031092DD
:102400008303109284031092960310929703109204
:1024100098031092990320E030E04AE756E4609177
:102420001A0270911B0280911C0290911D020E9461
:102430000C1520E030E040E251E40E9490164B0180
:102440005C0160914A0370914B0380914C03909121
:102450004D030E94AD149B01AC01C501B4010E9463
:102460001F160E94021760934A0370934B038093D8
:102470004C0390934D0360934E0370934F038093EE
:1024800050039093510310926E0310926F031092B9
:1024900070031092710310923D0310923E0310924C
:1024A0003F03109240031092520310925303109274
:1024B000540310925503C0922202D0922302E0925C
:1024C0002402F092250210921A0210921B0210921E
:1024D0001C0210921D0220912C0230912D0240917D
:1024E0002E0250912F02C701B6010E945E07109282
:1024F0000401D3018D919D910D90BC91A02D8B8BEA
:102500009C8BAD8BBE8BD30114968D919D910D90BC
:10251000BC91A02D8F8B988FA98FBA8FBFEF4B1ACC
:102520005B0AE8E06E0E711C2FCF2B893C894D8928
:102530005E89D3016D917D918D919C910E941E16B3
:102540006B8F7C8F8D8F9E8F2F89388D498D5A8D03
:10255000F30164817581868197810E941E166B014B
:102560007C012B8D3C8D4D8D5E8DCA01B9010E9481
:102570000C154B015C01A7019601C701B6010E9431
:102580000C159B01AC01C501B4010E941F160E94ED
:10259000521820E030E0A9010E9490160E94021714
:1025A0008B011616170614F001E010E0312C212CD7
:1025B000C801012E000CAA0BBB0B8F8F98A3A9A3F7
:1025C000BAA3B101032C000C880B990B0E94AD1427
:1025D0004B015C016F8D78A189A19AA10E94AD1475
:1025E0009B01AC01C501B4010E9490164B015C0136
:1025F000AC019B01C701B6010E940C152F89388DD3
:10260000498D5A8D0E941F166BA37CA38DA39EA398
:10261000A50194016B8D7C8D8D8D9E8D0E940C1576
:102620002B893C894D895E890E941F162BA13CA1F4
:102630004DA15EA10E945E079FEF291A390A02157B
:1026400013050CF0BECF55CF1092780210922702DE
:102650001092260280E891E00E940A0940CC11E025
:10266000F8CC662777270C943513B0E0A0E0EBE3B5
:10267000F3E10C94DE155C017B016115710519F025
:10268000DB018D939C9385010F5F1F4FF501D08176
:102690008D2F90E00E9485146C01892BB9F5DD32F5
:1026A000B9F50F5F1F4FD5011196DC91C1E05801BC
:1026B000F1E0AF1AB10843E050E06EE870E0C50108
:1026C0000E948E14892B69F5680182E0C80ED11C26
:1026D00045E050E069E870E0C6010E948E14892B45
:1026E00021F4680197E0C90ED11CE114F10419F03E
:1026F000D701CD92DC9260E070E080E89FEFC111DD
:10270000FFC060E070E080E89FE7FAC05801BBCFEF
:10271000DB3229F485010E5F1F4FF501D181C0E046
:10272000C6CF43E050E066E870E0C5010E948E1419
:10273000892BE9F0F80110E000E020E030E0A90189
:102740005F01B0ED8B2E8D0E89E08815C8F19C2EAF
:10275000689491F88C2F8870C2FF16C0811102C056
:102760000F5F1F4F3196D501DC91C92DE9CFE114E0
:10277000F10429F00E5F1F4FF7011183008360E021
:1027800070E080EC9FE7BCC0882311F00150110974
:10279000A5E0B0E00E94CD159B01AC01220F331FD4
:1027A000441F551F280D311D411D511D283999E920
:1027B0003907490799E15907A8F2C6609C2ED2CF84
:1027C000AEEF8A1206C0C3FD3CC09C2E689493F8FD
:1027D000C9CFDF7DD534A9F580818D3239F4C06150
:1027E000DF011296818162E070E006C0DF018B326A
:1027F000C1F3119661E070E080535D01A61AB70A3B
:102800008A30F8F4E0E8CE16ECE0DE065CF4B601BF
:10281000660F771F660F771FC60ED71ECC0CDD1C08
:10282000C80ED11C5D01FFEFAF1ABF0A8C91805317
:102830008A30A8F1C4FF03C0D194C194D1080C0D13
:102840001D1DC1FF09C0E114F10431F081E0A81A97
:10285000B108D701AD92BC92CA01B9010E94AB1474
:10286000C370C33009F490584B015C0120E030E0A4
:10287000A9010E94A614882309F440C0CDEBD0E042
:1028800017FF05C0119501951109C5EAD0E06E0149
:10289000B8E1CB1AD10880E2E82EF12C0FC0D501A7
:1028A000B1CFFE0125913591459154910E191F0923
:1028B000C501B4010E940C154B015C01D501C40196
:1028C0000E151F0574F72497F594E794CC16DD06D2
:1028D000A9F78A2F880F8B2F881F8F3F49F020E0A0
:1028E00030E0A901C501B4010E94A614811106C0FF
:1028F00082E290E09093C3038093C203C501B401C8
:10290000CDB7DEB7ECE00C94FA1591110C94791563
:10291000803219F089508550C8F70895FB01DC0119
:102920004150504088F08D9181341CF08B350CF46F
:10293000805E659161341CF06B350CF4605E861B23
:10294000611171F3990B0895881BFCCF0E94E81464
:1029500008F481E00895E89409C097FB3EF490954F
:102960008095709561957F4F8F4F9F4F9923A9F068
:10297000F92F96E9BB279395F695879577956795F7
:10298000B795F111F8CFFAF4BB0F11F460FF1BC03B
:102990006F5F7F4F8F4F9F4F16C0882311F096E9CE
:1029A00011C0772321F09EE8872F762F05C066237C
:1029B00071F096E8862F70E060E02AF09A95660F35
:1029C000771F881FDAF7880F9695879597F90895EE
:1029D000990F0008550FAA0BE0E8FEEF1616170630
:1029E000E807F907C0F012161306E407F50798F098
:1029F000621B730B840B950B39F40A2661F0232BB1
:102A0000242B252B21F408950A2609F4A140A6952C
:102A10008FEF811D811D08950E941F150C94931541
:102A20000E94851538F00E948C1520F0952311F036
:102A30000C947C150C94821511240C94C7150E94DB
:102A4000A41570F3959FC1F3950F50E0551F629F39
:102A5000F001729FBB27F00DB11D639FAA27F00DF7
:102A6000B11DAA1F649F6627B00DA11D661F829F1E
:102A70002227B00DA11D621F739FB00DA11D621F03
:102A8000839FA00D611D221F749F3327A00D611D20
:102A9000231F849F600D211D822F762F6A2F112402
:102AA0009F5750409AF0F1F088234AF0EE0FFF1F35
:102AB000BB1F661F771F881F91505040A9F79E3F8C
:102AC000510580F00C947C150C94C7155F3FE4F31E
:102AD000983ED4F3869577956795B795F795E795E2
:102AE0009F5FC1F7FE2B880F911D9695879597F9EB
:102AF000089599278827089597F99F6780E870E0DF
:102B000060E008959FEF80EC089500240A94161663
:102B1000170618060906089500240A9412161306CB
:102B2000140605060895092E0394000C11F4882359
:102B300052F0BB0F40F4BF2B11F460FF04C06F5F75
:102B40007F4F8F4F9F4F089557FD9058440F551F4B
:102B500059F05F3F71F04795880F97FB991F61F01F
:102B60009F3F79F087950895121613061406551F96
:102B7000F2CF4695F1DF08C0161617061806991F02
:102B8000F1CF86957105610508940895E894BB27F7
:102B900066277727CB0197F908950E940F16A59F06
:102BA000900DB49F900DA49F800D911D1124089548
:102BB0002F923F924F925F926F927F928F929F924D
:102BC000AF92BF92CF92DF92EF92FF920F931F933B
:102BD000CF93DF93CDB7DEB7CA1BDB0B0FB6F894EC
:102BE000DEBF0FBECDBF09942A88398848885F842C
:102BF0006E847D848C849B84AA84B984C884DF809D
:102C0000EE80FD800C811B81AA81B981CE0FD11D80
:102C10000FB6F894DEBF0FBECDBFED010895A29FA1
:102C2000B001B39FC001A39F700D811D1124911DA0
:102C3000B29F700D811D1124911D08955058BB271E
:102C4000AA270E9436160C9493150E94851538F019
:102C50000E948C1520F039F49F3F19F426F40C944F
:102C600082150EF4E095E7FB0C947C15E92F0E9489
:102C7000A41558F3BA17620773078407950720F065
:102C800079F4A6F50C94C6150EF4E0950B2EBA2F28
:102C9000A02D0B01B90190010C01CA01A001112462
:102CA000FF27591B99F0593F50F4503E68F11A160E
:102CB000F040A22F232F342F4427585FF3CF46959F
:102CC00037952795A795F0405395C9F77EF41F16C1
:102CD000BA0B620B730B840BBAF09150A1F0FF0F8B
:102CE000BB1F661F771F881FC2F70EC0BA0F621F77
:102CF000731F841F48F4879577956795B795F79567
:102D00009E3F08F0B0CF9395880F08F09927EE0FFB
:102D10009795879508950E94CE17E3950C94F71721
:102D20000E94A4160C9493150E948C1558F00E94D2
:102D3000851540F029F45F3F29F00C947C15511162
:102D40000C94C7150C9482150E94A41568F399235E
:102D5000B1F3552391F3951B550BBB27AA27621797
:102D60007307840738F09F5F5F4F220F331F441FA4
:102D7000AA1FA9F335D00E2E3AF0E0E832D09150D8
:102D80005040E695001CCAF72BD0FE2F29D0660FC5
:102D9000771F881FBB1F261737074807AB07B0E808
:102DA00009F0BB0B802DBF01FF2793585F4F3AF00E
:102DB0009E3F510578F00C947C150C94C7155F3F2D
:102DC000E4F3983ED4F3869577956795B795F79594
:102DD0009F5FC9F7880F911D9695879597F908957C
:102DE000E1E0660F771F881FBB1F62177307840718
:102DF000BA0720F0621B730B840BBA0BEE1F88F727
:102E0000E09508950E9409176894B1110C94C715B4
:102E100008950E94AC1588F09F5798F0B92F992714
:102E2000B751B0F0E1F0660F771F881F991F1AF0B5
:102E3000BA95C9F714C0B13091F00E94C615B1E03F
:102E400008950C94C615672F782F8827B85F39F03E
:102E5000B93FCCF3869577956795B395D9F73EF44E
:102E600090958095709561957F4F8F4F9F4F0895F6
:102E70000E940B1890F09F3748F4911116F00C94B3
:102E8000C71560E070E080E89FEB089526F41B16FC
:102E9000611D711D811D0C94A3170C94BE170E9417
:102EA000851520F019F00E948C1550F40C948215B1
:102EB0000C94C715E92F0E94A41588F35523B1F38C
:102EC000E7FB6217730784079507A8F189F3E92FD9
:102ED000FF2788232AF03197660F771F881FDAF7BC
:102EE000952F5527442332F091505040220F331F25
:102EF000441FD2F7BB27E91BF50B621B730B840B36
:102F0000B109B1F222F4620F731F841FB11D319712
:102F10002AF0660F771F881FBB1FEFCF91505040DC
:102F200062F041F0882332F0660F771F881F9150BE
:102F30005040C1F793950C94BE1786957795679589
:102F40009F5FD9F7F7CF882371F4772321F098504A
:102F5000872B762F07C0662311F499270DC0905157
:102F6000862B70E060E02AF09A95660F771F881F25
:102F7000DAF7880F9695879597F908959F3F31F076
:102F8000915020F4879577956795B795880F911D97
:102F90009695879597F908950C9482150E94AC1523
:102FA000D8F3E894E0E0BB279F57F0F02AED3FE02C
:102FB00049EC06C0EE0FBB0F661F771F881F28F075
:102FC000B23A62077307840728F0B25A620B730B98
:102FD000840BE3959A9572F7803830F49A95BB0F7D
:102FE000661F771F881FD2F790480C94C017EF9385
:102FF000E0FF07C0A2EA2AED3FE049EC5FEB0E9448
:1030000036160E9493150F90039401FC9058E8E641
:10301000F0E00C9499180E94AC15A0F0BEE7B91727
:1030200088F4BB279F3860F41616B11D672F782FE0
:103030008827985FF7CF869577956795B11D93950B
:103040009639C8F308950E94E81408F48FEF0895A4
:103050000E94AC15E8F09E37E8F09639B8F49E3837
:1030600048F4672F782F8827985FF9CF8695779552
:10307000679593959539D0F3B62FB1706B0F711D8D
:10308000811D20F487957795679593950C94A317E8
:103090000C94BE170C94C71519F416F40C948215F1
:1030A0000C94BE170E94AC15B8F39923C9F3B6F37C
:1030B0009F57550B87FF0E9492180024A0E640EA14
:1030C000900180585695979528F4805C660F771F7D
:1030D000881F20F026173707480730F4621B730B50
:1030E000840B202931294A2BA69517940794202573
:1030F00031254A2758F7660F771F881F20F02617BB
:103100003707480730F4620B730B840B200D311D19
:10311000411DA09581F7B901842F9158880F96958C
:103120008795089591505040660F771F881FD2F7FA
:1031300008959F938F937F936F93FF93EF939B01DA
:10314000AC010E940C15EF91FF910E94AD182F91D8
:103150003F914F915F910C940C15DF93CF931F9388
:103160000F93FF92EF92DF927B018C01689406C06F
:10317000DA2EEF010E941F15FE01E894A59125911A
:10318000359145915591A6F3EF010E943616FE0147
:103190009701A801DA9469F7DF90EF90FF900F9103
:1031A0001F91CF91DF910895052E97FB1EF4009497
:1031B0000E94EB1857FD07D00E94F91807FC03D0B6
:1031C0004EF40C94EB1850954095309521953F4F57
:1031D0004F4F5F4F089590958095709561957F4F03
:1031E0008F4F9F4F0895EE0FFF1F0590F491E02D34
:1031F0000994A1E21A2EAA1BBB1BFD010DC0AA1F38
:10320000BB1FEE1FFF1FA217B307E407F50720F04F
:10321000A21BB30BE40BF50B661F771F881F991FCA
:103220001A9469F760957095809590959B01AC0113
:10323000BD01CF0108950F931F93CF93DF93823089
:10324000910510F482E090E0E091C603F091C7038D
:1032500030E020E0B0E0A0E0309799F4211531058E
:1032600009F44AC0281B390B24303105D8F58A816E
:103270009B816115710589F1FB0193838283FE01B6
:1032800011C0408151810281138148175907E0F034
:103290004817590799F4109761F012960C931297FA
:1032A00013961C933296CF01DF91CF911F910F910E
:1032B00008950093C6031093C703F4CF2115310579
:1032C00051F04217530738F0A901DB019A01BD0103
:1032D000DF01F801C1CFEF01F9CF9093C7038093CD
:1032E000C603CDCFFE01E20FF31F819391932250CD
:1032F000310939832883D7CF2091C4033091C50386
:10330000232B41F420910701309108013093C5032C
:103310002093C40320910501309106012115310548
:1033200041F42DB73EB74091090150910A01241B89
:10333000350BE091C403F091C503E217F307A0F445
:103340002E1B3F0B2817390778F0AC014E5F5F4FFB
:103350002417350748F04E0F5F1F5093C503409365
:10336000C403819391939FCFF0E0E0E09CCFCF9393
:10337000DF930097E9F0FC01329713821282A0914B
:10338000C603B091C703ED0130E020E01097A1F42F
:1033900020813181820F931F2091C4033091C50396
:1033A0002817390709F061C0F093C503E093C403FF
:1033B000DF91CF910895EA01CE17DF07E8F54A8142
:1033C0005B819E0141155105B1F7E901FB83EA8359
:1033D00049915991C40FD51FEC17FD0761F4808105
:1033E00091810296840F951FE901998388838281D8
:1033F00093819B838A83F0E0E0E012968D919C910B
:1034000013970097B9F52D913C911197CD01029634
:10341000820F931F2091C4033091C50328173907E9
:1034200039F6309751F51092C7031092C603B09346
:10343000C503A093C403BCCFD383C2834081518111
:10344000840F951FC817D90761F44E5F5F4F8881BD
:103450009981480F591F518340838A819B819383AF
:1034600082832115310509F0B0CFF093C703E093B3
:10347000C6039ECFFD01DC01C0CF13821282D7CFDD
:10348000B0E0A0E0E6E4FAE10C94DA158C010097D4
:1034900051F4CB010E941B198C01C801CDB7DEB7D6
:1034A000E0E10C94F615FC01E60FF71F9C01225099
:1034B0003109E217F30708F49DC0D901CD91DC91E1
:1034C0001197C617D70798F0C530D10530F3CE0154
:1034D00004978617970708F3C61BD70B2297C1934B
:1034E000D1936D937C93CF010E94B719D6CF5B0126
:1034F000AC1ABD0A4C018C0E9D1EA091C603B09162
:10350000C703512C412CF12CE12C109731F58091FF
:10351000C4039091C5038815990509F05CC046164F
:10352000570608F058C08091050190910601009758
:1035300041F48DB79EB74091090150910A01841B57
:10354000950BE817F90708F055C0F093C503E09311
:10355000C403F90171836083A0CF8D919C91119771
:1035600012966C90129713967C901397A815B90534
:1035700059F56C0142E0C40ED11CCA14DB0420F1E1
:10358000AC014A195B09DA011296159780F0628244
:10359000738251834083D9016D937C93E114F104CC
:1035A00071F0D7011396FC93EE93129776CF229683
:1035B0008C0F9D1FF90191838083F301EFCFF0936E
:1035C000C703E093C60369CF4816590608F42C01D7
:1035D0007D01D3019ACFCB010E941B197C0100977A
:1035E00049F0AE01B8010E94FD1AC8010E94B71946
:1035F000870153CF10E000E050CFFB01DC0102C097
:1036000001900D9241505040D8F70895FC018191EE
:10361000861721F08823D9F7992708953197CF018C
:103620000895FB01DC018D91019080190110D9F3FF
:10363000990B0895FB01DC0101900D920020E1F748
:103640000895FB01DC014150504030F08D91019014
:10365000801919F40020B9F7881B990B0895FB0114
:1036600051915523A9F0BF01DC014D91451741113E
:10367000E1F759F4CD010190002049F04D9140153A
:103680004111C9F3FB014111EFCF81E090E00197B7
:063690000895F894FFCF3D
:10369600CDCC3C40010000C8038000000000003E85
:1036A600025E018B018B02FC019A01EE0100000013
:1036B60000B3037F035D07360A920514055205FE23
:1036C60004CC04AB04770456040004D1030D0A00AD
:1036D600484F4D494E4700484F4D4544005461629E
:1036E6006C653A2044756E65205765617665720093
:1036F600447269766572733A20544D4332323039DA
:103706000056657273696F6E3A20312E342E300082
:103716005200537069726F6772617068204D6F64F2
:10372600652041637469766500417070204D6F6451
:1037360065204163746976650054484554415F527B
:103746004553455400484F4D450052455345545F37
:103756005448455441004745545F56455253494FD6
:103766004E005345545F5350454544003B0049477E
:103776004E4F5245443A2000524541445900535059
:103786004545445F53455400494E56414C49445FB4
:10379600535045454400494E56414C49445F434FBA
:0637A6004D4D414E4400B0
:00000001FF
